:100000000C942A000C9434000C9434000C943400AA
:100010000C9434000C9434000C9434000C94340090
:100020000C9434000C9434000C9434000C94340080
:100030000C9434000C9434000C9434000C94340070
:100040000C9434000C9434000C9434000C94340060
:100050000C94340011241FBECFE5D8E0DEBFCDBF25
:100060000E948D000C94AA000C940000DF93CF93A3
:1000700000D0CDB7DEB71A8219828A8180618A8367
:100080008A8188608A838981806889838981846084
:100090008983898182608983EAE2F0E08A818083B2
:1000A000E0E4F0E089818083E9E2F0E083E38083AB
:1000B000E0E4F0E010820F900F90CF91DF9108956F
:1000C000DF93CF930F92CDB7DEB78983ECE2F0E0F8
:1000D00089818083EBE2F0E080818295869587704C
:1000E000882F90E0817090700097A1F30F90CF91CE
:1000F000DF910895DF93CF930F92CDB7DEB7EBE298
:10010000F0E080818823DCF7ECE2F0E080818983F5
:1001100089810F90CF91DF910895DF93CF930F9254
:10012000CDB7DEB7EAE3F0E08FEF80830E943600C0
:100130000E947A0089838981813341F4EBE3F0E006
:100140008FEF808384E40E946000F2CFEBE3F0E065
:080150001082EECFF894FFCFFE
:00000001FF
